:0A09E3003F065B4F666D7D077F6FD6
:0809ED00020A0000020C003CAC
:10098000EF3395E0FE74E32FF58274093EF583E4BE
:0709900093F5A07F027E0039
:10099700D3EF9400EE6480948040147D7D7C00ED5D
:0F09A7001D70011CED4C70F7EF1F70E41E80E116
:0109B600221E
:1009B700E4F50E758901758C3C758AB0D2AFD2A962
:1009C700D28CD2B0AF09120980C2B0120993D2B14A
:0C09D700AF08120980C2B112099380E63B
:03000B00020917D0
:10091700C0E0C0F0C0D075D000C000C004C005C0A2
:1009270006C007758C3C758AB0050BE50B70020590
:100937000A6414450A7031F50AF50BE50D150D70BB
:1009470002150CE50D450C7005F50C750D3CAE0C4C
:10095700AF0D7C007D0A12088C8F08AE0CAF0D7CA2
:10096700007D0A12088C8D09D007D006D005D00467
:09097700D000D0D0D0F0D0E03265
:03000000020800F3
:0C080000787FE4F6D8FD75810E020847F1
:10088C00C2D5EC30E709B2D5E4C39DFDE49CFCEE87
:10089C0030E715B2D5E4C39FFFE49EFE1208C2C335
:1008AC00E49DFDE49CFC80031208C230D507C3E430
:0608BC009FFFE49EFE22F6
:10080C000209B7E493A3F8E493A34003F68001F242
:10081C0008DFF48029E493A3F85407240CC8C333ED
:10082C00C4540F4420C8834004F456800146F6DFBC
:10083C00E4800B01020408102040809009EDE47E56
:10084C00019360BCA3FF543F30E509541FFEE493B1
:10085C00A360010ECF54C025E060A840B8E493A378
:10086C00FAE493A3F8E493A3C8C582C8CAC583CAA3
:10087C00F0A3C8C582C8CAC583CADFE9DEE780BE5B
:0109F5000001
:1008C200BC000BBE0029EF8DF084FFADF022E4CC1A
:1008D200F875F008EF2FFFEE33FEEC33FCEE9DECE3
:1008E200984005FCEE9DFE0FD5F0E9E4CEFD22ED29
:1008F200F8F5F0EE8420D21CFEADF075F008EF2F73
:10090200FFED33FD4007985006D5F0F222C398FD63
:050912000FD5F0EA2200
:00000001FF
