:0C0B7A000A08C0F9A4B0999282F880909B
:100B0300AE16AF177C001209C57C007D0A1209C519
:0B0B130074082DF8E6F5807F017E00DD
:100B1E00EF1FAA0670011E4A600BE4FDEDC3947828
:050B2E0050EE0D80F700
:010B3300229F
:100B5500C2A5D2A5C2A530A6FDD2A7AF9075120039
:050B65008F13C2A7225E
:100AB4008E168F17D2A0C2A1C2A2C2A37C037DE866
:100AC4001209C574082F120B167580FFC2A0D2A19B
:100AD400C2A2C2A37D64120B037580FFC2A0C2A18F
:100AE400D2A2C2A37D0A120B037580FFC2A0C2A1C9
:0F0AF400C2A2D2A3AE16AF17120B0C7580FF2251
:03000B00020B875E
:030B8700B2A432E3
:100B6A00758902758C14E4F58AD28CD2A9D2AF2287
:100B3400120B6A120B55AC12AD13E412090B7B486D
:100B44007AE179FA783F120800120944120AB48053
:010B5400E2BE
:10080000EC4D6011E8497017ED33EC3304600DE4F2
:10081000FCFFFEFD22E933E8330470F80209B01250
:10082000097B58046009E4CC248150062850090251
:1008300009BA2840030209B7C0E0EB4A7044B98006
:1008400006D0E0FB0209A6EF4E701CBD8008EBFF4E
:10085000EAFEE9FD80EBE98DF0A4FEE5F00208E98F
:10086000E9CDF9EAFEEBFFEF89F0A4FCE5F0CE89D3
:10087000F0A42EFFE435F0CD89F0A42DFEE435F090
:100880008067EF4E7005BD80D780C3EF8BF0A4ACBE
:10089000F0EE8BF0A42CFCE435F0F8EF8AF0A42CF9
:1008A000E5F038FCE433CB8DF0A42CFCE5F03BF80C
:1008B000EE8AF0A42CFCE5F038F8E433CF89F0A4FC
:1008C0002CFCE5F038CF3400CE89F0A42FFFE5F002
:1008D0003EFEE433C98DF0A42EFEE5F039CD8AF05A
:1008E000A42FFFE5F03EFEE43DFD33D0E0FB5007D2
:1008F0000BBB000F0209BAEC2CFCEF33FFEE33FE0A
:06090000ED33FD02099237
:1009060075F020800E75F010800575F0087D007E6C
:10091600007F003392D530D503120A1AEC3340100B
:10092600EF33FFEE33FEED33FDEC33FCD5F0ED2275
:0E093600E5F0247EA2D513CC92E7CDCEFF22B1
:10094400EDD2E7CD33EC3392D524814006E4FFFEAB
:10095400FDFC22FCE4CFCECDCC24E0501174FF800A
:10096400EDC3CC13CCCD13CDCE13CECF13CF0470A7
:07097400F030D5DE020A1A83
:10097B00E9D2E7C933E833F892D5EDD2E7CD33ECC2
:07098B0033FC5002B2D5223B
:10099200EC30E7100FBF000C0EBE00080DBD0004C6
:1009A2000BEB6014A2D5EB13FCED92E7FD2274FF72
:1009B200FCFDFEFF22E480F8A2D574FF13FC7D80CB
:0309C200E480EFDF
:03000000020A28C9
:0C0A2800787FE4F6D8FD758117020A6F94
:1009C500BC000BBE0029EF8DF084FFADF022E4CC16
:1009D500F875F008EF2FFFEE33FEEC33FCEE9DECDF
:1009E500984005FCEE9DFE0FD5F0E9E4CEFD22ED25
:1009F500F8F5F0EE8420D21CFEADF075F008EF2F6F
:100A0500FFED33FD4007985006D5F0F222C398FD5F
:050A15000FD5F0EA22FC
:0E0A1A00C3E49FFFE49EFEE49DFDE49CFC22ED
:100A3400020B34E493A3F8E493A34003F68001F299
:100A440008DFF48029E493A3F85407240CC8C333C3
:100A5400C4540F4420C8834004F456800146F6DF92
:100A6400E4800B0102040810204080900B7AE47E9D
:100A7400019360BCA3FF543F30E509541FFEE49387
:100A8400A360010ECF54C025E060A840B8E493A34E
:100A9400FAE493A3F8E493A3C8C582C8CAC583CA79
:100AA400F0A3C8C582C8CAC583CADFE9DEE780BE31
:010B8600006E
:00000001FF
