:100B6E000A08C0F9A4B0999282F880900A144079CC
:080B7E00243019120278001066
:100B25007C007D0A1209C574082DF8E6F5807F0161
:020B35007E0040
:100B3700EF1FAA0670011E4A600BE4FDEDC394780F
:050B470050EE0D80F7E7
:010B4C002286
:100B8700C2A5D2A5C2A530A6FDD2A7AF9075120007
:050B97008F13C2A7222C
:100AB4008E208F21D2A0C2A1C2A2C2A37C007D64D9
:100AC4001209C574142F120B2F7580FFC2A0D2A176
:100AD400C2A2C2A3AE20AF217C007D641209C57EF0
:100AE400007F0ACFCDCFCECCCE1209C574082F1209
:100AF4000B2F7580FFC2A0C2A1D2A2C2A3AE20AFA9
:100B0400217C007D0A1209C5120B257580FFC2A045
:100B1400C2A1C2A2D2A3AE20AF21120B257580FFC1
:010B240022AE
:03000B00020BAC39
:030BAC00B2A432BE
:100B9C00758902758C14E4F58AD28CD2A9D2AF2255
:100B4D00120B9C120B87AC12AD13E412090B7B48F0
:100B5D007AE179FA783F120800120944120AB4803A
:010B6D00E2A5
:10080000EC4D6011E8497017ED33EC3304600DE4F2
:10081000FCFFFEFD22E933E8330470F80209B01250
:10082000097B58046009E4CC248150062850090251
:1008300009BA2840030209B7C0E0EB4A7044B98006
:1008400006D0E0FB0209A6EF4E701CBD8008EBFF4E
:10085000EAFEE9FD80EBE98DF0A4FEE5F00208E98F
:10086000E9CDF9EAFEEBFFEF89F0A4FCE5F0CE89D3
:10087000F0A42EFFE435F0CD89F0A42DFEE435F090
:100880008067EF4E7005BD80D780C3EF8BF0A4ACBE
:10089000F0EE8BF0A42CFCE435F0F8EF8AF0A42CF9
:1008A000E5F038FCE433CB8DF0A42CFCE5F03BF80C
:1008B000EE8AF0A42CFCE5F038F8E433CF89F0A4FC
:1008C0002CFCE5F038CF3400CE89F0A42FFFE5F002
:1008D0003EFEE433C98DF0A42EFEE5F039CD8AF05A
:1008E000A42FFFE5F03EFEE43DFD33D0E0FB5007D2
:1008F0000BBB000F0209BAEC2CFCEF33FFEE33FE0A
:06090000ED33FD02099237
:1009060075F020800E75F010800575F0087D007E6C
:10091600007F003392D530D503120A1AEC3340100B
:10092600EF33FFEE33FEED33FDEC33FCD5F0ED2275
:0E093600E5F0247EA2D513CC92E7CDCEFF22B1
:10094400EDD2E7CD33EC3392D524814006E4FFFEAB
:10095400FDFC22FCE4CFCECDCC24E0501174FF800A
:10096400EDC3CC13CCCD13CDCE13CECF13CF0470A7
:07097400F030D5DE020A1A83
:10097B00E9D2E7C933E833F892D5EDD2E7CD33ECC2
:07098B0033FC5002B2D5223B
:10099200EC30E7100FBF000C0EBE00080DBD0004C6
:1009A2000BEB6014A2D5EB13FCED92E7FD2274FF72
:1009B200FCFDFEFF22E480F8A2D574FF13FC7D80CB
:0309C200E480EFDF
:03000000020A28C9
:0C0A2800787FE4F6D8FD758121020A6F8A
:1009C500BC000BBE0029EF8DF084FFADF022E4CC16
:1009D500F875F008EF2FFFEE33FEEC33FCEE9DECDF
:1009E500984005FCEE9DFE0FD5F0E9E4CEFD22ED25
:1009F500F8F5F0EE8420D21CFEADF075F008EF2F6F
:100A0500FFED33FD4007985006D5F0F222C398FD5F
:050A15000FD5F0EA22FC
:0E0A1A00C3E49FFFE49EFEE49DFDE49CFC22ED
:100A3400020B4DE493A3F8E493A34003F68001F280
:100A440008DFF48029E493A3F85407240CC8C333C3
:100A5400C4540F4420C8834004F456800146F6DF92
:100A6400E4800B0102040810204080900B6EE47EA9
:100A7400019360BCA3FF543F30E509541FFEE49387
:100A8400A360010ECF54C025E060A840B8E493A34E
:100A9400FAE493A3F8E493A3C8C582C8CAC583CA79
:100AA400F0A3C8C582C8CAC583CADFE9DEE780BE31
:010B8600006E
:00000001FF
