:100331000923804020100804020100092C7FBFDF3F
:10034100EFF7FBFDFE0009357EBDDBE7E7DBBD7E98
:0103510000AB
:10035300D3EF9400EE6480948040147D6E7C00EDB6
:0F0363001D70011CED4C70F7EF1F70E41E80E160
:010372002268
:1002F60020B00BE4F521E522F4600375220120B15C
:100306000CE4F521E522640160037522FF20B20B9F
:10031600E4F522E521F4600375210120B30CE4F530
:0B03260022E521640160037521FF2225
:10025800AA06AB07EB1BAE0270011A4E6044E4F528
:1002680057F558C3E558940BE5576480948050E4DB
:10027800AF5874412FF8E62423F8E6F5A0744C2F04
:10028800F8E6242CF8E6F5801202F67F017E0012CB
:100298000353E4F5A07580FF0558E55870C5055768
:0302A80080C122F0
:1002AB007580FFE4F5A075B0FF755B32F557755897
:1002BB0003AF5874412FF87608744C2FF876080565
:1002CB0058E55870020557640B455770E4754105A6
:1002DB00754C03753E02E4F542754D02F543754EC0
:0B02EB0001F521F522F559755A022299
:1001F900C200E542D394075006E54D94074002D268
:1002090000755700755802E53E2401FFE433FEC32B
:10021900E5589FEE6480F8E557648098502EAF58F2
:10022900744C2FF8E6B54D047E0180027E007441BE
:100239002FF8E6B542047F0180027F00EF5E60027D
:0E024900D2000558E55870BF055780BBA200D3
:010257002284
:100003001202ABE5B0540F753F00F540640F453F56
:1000130070097F017E0012025880E81201F9503402
:03002300755B32D8
:10002600E4F508F509AF0974232FF8E6F5A0743551
:100036002FF8E6F5807F037E001203530509E509D4
:1000460070020508D39407E5086480948040D68042
:01005600CFDA
:10005700AF5B7E00120258AF22EF3395E0FEE54D0D
:100067002FFFE43EFEE54CB50708E4B506047F0123
:1000770080027F00E521FD3395E0FCE5422DFDE49C
:100087003CFCE541B50508E4B504047E0180027E29
:1000970000EE5F7003020125053EE53E640A703FEE
:1000A700753E0374FB255BF55B7557007558037444
:1000B700412558F876080558E55870020557640B2E
:1000C700455770EB755700755803744C2558F876EB
:1000D700080558E55870020557640B455770EB053E
:1000E7005AE55A70020559D39404E55964809480FF
:1000F7004006755900755A02E542D39404E542401B
:1001070006955AF5418004255AF541E54DD39404E7
:10011700E54D4006955AF54C8004255AF54C755720
:1001270000853E58D3E5589401E557648094804094
:1001370026AF5874402FF8E6FE74412FF8A606AF95
:1001470058744B2FF8E6FE744C2FF8A606E55815A1
:100157005870D1155780CDE5432521F542E54E2549
:0601670022F54D02001E0E
:0300000002016D8D
:0C016D00787FE4F6D8FD75815B0201B4D8
:10017900020003E493A3F8E493A34003F68001F299
:1001890008DFF48029E493A3F85407240CC8C33387
:10019900C4540F4420C8834004F456800146F6DF56
:1001A900E4800B0102040810204080900331E47EB2
:1001B900019360BCA3FF543F30E509541FFEE4934B
:1001C900A360010ECF54C025E060A840B8E493A312
:1001D900FAE493A3F8E493A3C8C582C8CAC583CA3D
:1001E900F0A3C8C582C8CAC583CADFE9DEE780BEF5
:0103520000AA
:00000001FF
