:0808D200020A00000208000008
:1008BD00C290C291758910E4F58C758A06D2AFD2BB
:0508CD00A9D28C80FEA1
:03000B0002088C5C
:10088C00C0E0050BE50B7002050A0509E5097002CD
:10089C000508E50B6404450A7006F50AF50BB290E1
:1008AC00E509642845087006F508F509B291D0E011
:0108BC003209
:03000000020800F3
:0C080000787FE4F6D8FD75810B020847F4
:10080C000208BDE493A3F8E493A34003F68001F23D
:10081C0008DFF48029E493A3F85407240CC8C333ED
:10082C00C4540F4420C8834004F456800146F6DFBC
:10083C00E4800B01020408102040809008D2E47E72
:10084C00019360BCA3FF543F30E509541FFEE493B1
:10085C00A360010ECF54C025E060A840B8E493A378
:10086C00FAE493A3F8E493A3C8C582C8CAC583CAA3
:10087C00F0A3C8C582C8CAC583CADFE9DEE780BE5B
:0108DA00001D
:00000001FF
